:10000000102B0020B9120000B5120000B51200003C
:1000100000000000000000000000000000000000E0
:10002000000000000000000000000000B512000009
:100030000000000000000000B5120000B512000032
:10004000B5120000B5120000B5120000B512000094
:10005000B5120000B5120000B5120000A131000079
:10006000B5120000B5120000B5120000B512000074
:1000700011180000B5120000B5120000B512000002
:10008000B5120000B5120000B5120000B512000054
:10009000B5120000B5120000B5120000B512000044
:1000A000B5120000B5120000B5120000B512000034
:1000B0000000000010B5064C2378002B07D1054B3B
:1000C000002B02D0044800E000BF0123237010BDC4
:1000D00064010020000000000C470000084B10B530
:1000E000002B03D00749084800E000BF0748036819
:1000F000002B00D110BD064B002BFBD09847F9E731
:1001000000000000680100200C4700000C470000C0
:100110000000000010B501F0A3FA03F0CDF810BD07
:10012000F0B5DE4657464E464546E0B587B00390EB
:100130000D000492984610AB1B889A4611AB1E889E
:100140004346CC18A4B2130053449FB20097230037
:1001500000F084FD002806D107B03CBC90469946CB
:10016000A246AB46F0BDAB199BB29B46049B9B19C4
:100170009BB21A00A41BA4B2013CA3B20593BC1B02
:10018000A4B2013CA4B20223009333009146594625
:10019000039F380000F03DF90123009333004A46E5
:1001A0000599380000F035F904230093330022004C
:1001B0005946380000F02DF908230093330022003F
:1001C0000599380000F025F941468F1BBFB2BF1BCF
:1001D000BFB251468C1BA4B2A41BA4B259464B1CFF
:1001E00099B28B464A46531C9BB29946022F15D8AA
:1001F000022CB1D9023CA4B24646013EB6B223005D
:100200004A462900039F380000F0F0FCAD19A9B25E
:1002100023004A46380000F0E9FC9DE7023FBFB2E8
:100220005246013A93B29A463B00049E320003982C
:1002300000F0D4FC330053449AB23B005946039873
:1002400000F0CCFCD4E710B582B003681B7C5943A6
:10025000C90089B2446BA44661440091002100F0BA
:10026000DDFE02B010BDF0B5C64600B5060038236D
:10027000C75C0133C55C03685B7C984600242A0098
:1002800021003000FFF7DFFF0134E4B20135EDB2A9
:10029000A74201D9A845F2D804BC9046F0BD10B5DC
:1002A00003681B7C3822825C5A43D200406B0021D9
:1002B00003F0BDF810BD10B50400FFF7D4FF200017
:1002C00000F0D7FE10BDF0B5CE4600B582B001906B
:1002D0000E0015001C0008AB1B88994609AB1F785F
:1002E000FB0709D4BB0717D43B0726D47B0735D4BB
:1002F00002B004BC9146F0BD4B469A1A92B2611806
:1003000089B200F07BFC4B469A1B92B2611989B20C
:10031000019800F073FCE5E74B465A1B92B2A11B13
:1003200089B2019800F06AFC4B469A1B92B2611B9D
:1003300089B2019800F062FCD6E74B465A1992B296
:10034000A11989B2019800F059FC4B46F21892B2FB
:10035000611989B2019800F051FCC7E74B465A1960
:1003600092B2A11B89B2019F380000F047FC4E44B5
:10037000B2B2611B89B2380000F040FCB8E7F0B5BA
:10038000DE4657464E464546E0B585B0029003919D
:1003900092461F000EAB1B789B460123DB1B1BB252
:1003A0009946FB03DB1B5D002DB25B460193009277
:1003B0000B003A000021FFF786FF00260124A84623
:1003C00025004C4610E00136B6B20235ABB21DB284
:1003D0001C1924B25B46019353460093039B3A00D9
:1003E00031000298FFF76FFFBE420BD2002CEADB10
:1003F000013FBFB2434602339BB21AB290461C196A
:1004000024B2E0E705B03CBC90469946A246AB4614
:10041000F0BDF0B585B003900E0017001D000AABCB
:100420001C784B199BB2A81880B201339BB2521BA7
:1004300092B2491B89B2013080B20090039800F05B
:100440000DFC002801D105B0F0BD00942B003A004E
:1004500031000398FFF793FFF5E7000007230370CF
:10046000004870478001002070B584B004000E0081
:1004700000931300084A094900F00CFF0F256D4452
:100480002800FFF7EBFF01002A780096044B2000BC
:1004900000F0D9FC04B070BD7D0F000029120000EF
:1004A0008B0C0000405C70474118087800024B78C4
:1004B000C01880B270470020704770B504000D006E
:1004C00000212800FFF7EEFF207001212800FFF730
:1004D000E9FF607002212800FFF7E4FFA07003210C
:1004E0002800FFF7DFFFE07004212800FFF7DAFFA4
:1004F000207105212800FFF7D5FF60710621280033
:10050000FFF7D0FFA07107212800FFF7CBFFE071B4
:1005100008212800FFF7C6FF207209212800FFF7F5
:10052000C1FF60720A212800FFF7BCFFA0720B21F7
:100530002800FFF7B7FFE0720C212800FFF7B2FF99
:1005400020730D212800FFF7ADFF60730E212800F6
:10055000FFF7A8FFA0730F212800FFF7A3FFE073A8
:1005600010212800FFF79EFF207411212800FFF7BB
:100570009BFF608213212800FFF796FFA0821521C0
:100580002800FFF791FFE08270BDF0B50500067B03
:10059000076838783041C4B27218D2B2072A0AD933
:1005A00008239B1BDBB27C1C2C607C789C400443A2
:1005B000E4B2083AD2B201238B40013B2340180039
:1005C0002A73F0BD70B50500040060340166002395
:1005D00023737833C15C2000FFF7D7FFA072792323
:1005E000E95C2000FFF7D1FFE0729223EB5CA3737C
:1005F0005A425341E37370BD10B50C00FFF7C5FFBD
:10060000013CE4B20123A340C01A40B210BD012B4B
:1006100009D0002B04D0022B08D0401A80B201E090
:10062000801880B27047401880B2FBE7801A80B211
:10063000F8E7012B09D0002B04D0022B08D080183A
:1006400080B201E0401880B27047801A80B2FBE7A8
:10065000401A80B2F8E7F0B5DE4657464E464546AA
:10066000E0B589B09246030060331A7A91465B7A0E
:100670000E0005001F00D04629E006962B006033CF
:100680009888DA8893464A4669460A736A460C2176
:1006900051567AB21B7C039304920591FFF7C9FF70
:1006A0000790039B049A05995846FFF7B0FF43460D
:1006B000002B16D12B0060335B7B002B20D0A64291
:1006C0002DD3361BF6B20137FFB2002399462B001B
:1006D00060339C7A4B46E41AE4B2A642CDD306942A
:1006E000CCE72B0060339A7B9223EA546B461B8B3A
:1006F000039A009202000799280000F008FADEE74A
:100700002B006033DA7B9223EA546B461B8B039AEF
:10071000009202000799280000F0F9F9CFE72F00B6
:1007200032004A443B0060331A726A46127C5A72A5
:1007300009B03CBC90469946A246AB46F0BDF0B528
:10074000D6464F464646C0B586B00400070060371F
:10075000FFF738FF6B23E35698467A23E15C3800B5
:10076000FFF74AFF02907B23E15C3800FFF744FF6C
:1007700005007C23E15C3800FFF73EFF03900A236D
:10078000FB569946002B5BDD4544EDB26D426BB2E2
:100790001A003D7CB8882B0005920299FFF749FFAB
:1007A00082460490B880F8882B00059A0299FFF7DA
:1007B0002EFF0200F880012D49D0002D05D0022D1A
:1007C00055D0032D67D0534607E04B4669460B8151
:1007D0000B8953449BB2404480B20090049920009E
:1007E00000F03CFA00282BD02300603300221A725C
:1007F0005A727623E15C3800FFF7C7FE06007723C4
:10080000E15C3800FFF7C1FE050000223100200046
:10081000FFF721FF012229002000FFF71CFF012123
:100820003800FFF7B2FE0028EFD1230060335B7A77
:100830005BB29845DDDC230060339A7B9223E2545F
:10084000039806B01CBC90469946A246F0BD53469C
:100850004146591A89B201315D1CABB24D466E4614
:1008600035813689801980B289B20491B5E74B464B
:100870006A46138111895346591A89B201315D1CA8
:10088000ABB24246821A92B20132013080B292B2C9
:1008900089B20491A1E755464544ABB24A46694640
:1008A0000A810A89821A92B20132013080B292B270
:1008B00093E770B50E00846D1734FF2914D86029B2
:1008C0000AD98823C35AE4186378002B28D02278E9
:1008D000964207D0E418F7E74029F5D98623C35A92
:1008E000E418F1E7A01C1CE08A23C05A2418250054
:1008F00000212800FFF7D8FD241802212800FFF767
:10090000D3FD04358642F3D823781B026278134363
:1009100008D09E4202D0A378E418F5E7E01C00E07E
:10092000002070BD0020FCE710B5040064202152B7
:100930006621625219002000FFF7BBFF002805D096
:1009400001002000FFF7FBFE80B210BD0020FCE795
:10095000F8B504000D0016001F007023C35C012BC6
:1009600011D0002B0AD0022B12D0032B15D03B0044
:10097000320029002000FFF7D7FFF8BDC36D98476C
:100980003618B6B2F3E7C36D98472D1AADB2EEE74D
:10099000C36D9847361AB6B2E9E7C36D98472D186C
:1009A000ADB2E4E7F0B5C64600B504000F0016008E
:1009B0001D0000F077FA0023984604E03F18BFB20C
:1009C000404483B298462978200063689847124BC8
:1009D00098421CD00135114B9842F4D003003200EC
:1009E00039002000FFF7B4FF7023E35C012B08D02F
:1009F000002BE3D0022B07D0032BE1D1361AB6B27D
:100A0000DEE73618B6B2DBE73F1ABFB2D8E740469A
:100A100004BC9046F0BDC046FFFF0000FEFF000092
:100A200010B5024C4460FFF7BDFF10BD8D0E0000F5
:100A300030B5836D002B1DD08123C1560D33C154B9
:100A40000C3BC2560D33C254023BC35C002B11D089
:100A5000012B10D07E23C356802404571D19A942B0
:100A600004DADBB2E1B25B188E214354A24201DD0D
:100A70008F23C45430BD8233C356994201DA8E218C
:100A800043548423C3569A42F4DD8F228354F1E702
:100A9000014BC3657047C046B704000010B50400A1
:100AA000836D8B4206D081657430FFF706FD200010
:100AB000FFF7BEFF10BD30B505880C882C19A4B215
:100AC000A54203D99D4210D25C1EA4B29D420ED213
:100AD00094420ED9954200D32A009C4200D82300AC
:100AE00002809B1A0B80012002E01500EEE7002037
:100AF00030BD0020FCE730B583B006AC2578C48F4C
:100B0000121B92B2C46A0095A04703B030BD70B505
:100B100084B0040008A805780E206844018003A969
:100B20000A800A226A4413808C23E35C002B15D0D0
:100B30001388002B12D0012B03D9022D10D0032DC6
:100B400014D001231D4032D14B33E25A03AB1B8832
:100B50009A4203D84E22A25A93420ED304B070BDDB
:100B60000288D31A9BB201330380EAE703A90A88FB
:100B7000D31A9BB201330B80E3E74A23E35A48229E
:100B8000A25A0A2169440E206844FFF794FF002806
:100B9000E4D0236B9E680A236B441B8803AA128847
:100BA0000E216944098800952000B047D6E7482304
:100BB000E25A3A3B6B441B889A42CFD84A22A25A47
:100BC0009342CBD24E23E35A4C22A25A0A216944C3
:100BD00003A8FFF770FF0028DBD1BFE710B582B094
:100BE00000240094FFF793FF02B010BD10B582B04F
:100BF00001240094FFF78BFF02B010BD00B583B055
:100C00004C23C35A93420BD84E23C35A9A4207D25D
:100C10004823C35A8B4203D84A23C35A994201D36B
:100C200003B000BD002300930133FFF770FFF7E727
:100C30008A4205D283420BD89A420BD9012008E0A0
:100C4000834209D99A4201D8002002E0012000E045
:100C5000012070470020FCE70020FAE770B506008D
:100C60000C001D0004AB1B884E21415A4C20305A09
:100C7000FFF7DEFF002807D04A23F15A023BF05A63
:100C80002B002200FFF7D4FF70BDF0B5C64600B5BB
:100C9000884606AC2778072414400125A540EDB20C
:100CA0009226865DB446012E1FD900266146012991
:100CB0001DD007218A4394460268127C61464A434C
:100CC00092B242441100426B94466144002F18D105
:100CD0000A783243D2B26A400A700131013B9BB2BA
:100CE000002BF5D104BC9046F0BD2E00DEE70025B8
:100CF000DFE7012617E07600F6B26D00EDB2002BBB
:100D0000F0D00A783243D2B26A400A700134072226
:100D10001440013B9BB2002CEDD1428F89189222E6
:100D2000825C012AE5D9012AE9D00125E7E7F0B57F
:100D300001683823C45CA3B2DA0082870A7CD2003F
:100D400042873922865CB7B2FA00C287A4194D7C6B
:100D5000AC4201DDEB1B9BB2DB009BB24024025393
:100D6000D318422283528A8A4423C252CA8A023347
:100D7000C252F0BD10B5FFF7DAFF10BD10B582B05A
:100D800004005223C35A5422825A5021415A5620F9
:100D9000205A00902000FFF761FF002823D0012295
:100DA0008C23E254443BE25A0833E35A9A4201D27C
:100DB0004822A3524A23E25A0833E35A9A4201D9FD
:100DC0004A22A3524C23E25A0833E35A9A4201D2F0
:100DD0004C22A3524E23E25A0833E35A9A4205D9D1
:100DE0004E22A35202E000228C23E25402B010BD36
:100DF00010B500224823C252043BC25A0633C252E5
:100E00000A3BC25A0C33C2520A3BC25A0C33C2527A
:100E1000FFF7B4FF10BD10B582B004AC2478009485
:100E2000FFF769FE02B010BD10B5002350228352B7
:100E300004328352013B023A835204328352036BE1
:100E40005B68984710BD70B5040004980025A5653F
:100E5000E36261633823E2540133E5543433E554EB
:100E60002433E554043BE5548C3B9222A3540132D5
:100E7000A35420630368200098472000FFF7D4FFA5
:100E80002000FFF705FE7023E55470BD002901D155
:100E9000034870470A2901D088B2FAE70048F8E70A
:100EA000FFFF000000222623C254704710B5130034
:100EB00004690A001721A04710BD00B583B06B4636
:100EC000DA1D11700121FFF7F1FF03B000BD10B56D
:100ED0000A00C46800231521A04710BD10B50A0000
:100EE000C46800231621A04710BD10B51300C468C4
:100EF0000A001721A04710BD10B5C46800230022C6
:100F00001821A04710BD10B5C46800230022192184
:100F1000A04710BD70B582B006000C002178651C9A
:100F2000172918D00CD919291FD9FE2924D12A78BC
:100F30006B46DA712921300000F090F90234EDE7B8
:100F4000152919D32A786B46DA7100233000F56829
:100F5000A8470234E2E763786A460732137001213A
:100F60003000FFF7C2FF0234D8E700230022300030
:100F7000F468A0472C00D1E702B070BD70B50C003A
:100F8000143CE5B2052D10D8AC00094D2C59A746EC
:100F90001100FFF792FF012070BD1100FFF78DFFD8
:100FA0000120F9E70469A047F6E70020F4E7C0460E
:100FB000A444000001608A7C2223C254704770B5AB
:100FC00004000023002228214569A84700230022AD
:100FD00014212000E568A84701224B21200000F0E1
:100FE0003DF923681A792921200000F037F9002201
:100FF0004B21200000F032F923681A7929212000C2
:1010000000F02CF901224B21200000F027F9236881
:101010005A792921200000F021F970BD10B582B065
:101020006C466171A2712371049B009384686B46C6
:1010300001220F21A04702B010BD10B58468002323
:1010400000220921A04710BD10B5846800230022AA
:101050000A21A04710BD10B50A00846800230B21A7
:10106000A04710BD10B50A00846800230E21A047D8
:1010700010BD10B58468002300221021A04710BDC8
:10108000F0B5DE4657464E464546E0B583B004000F
:10109000170098460E2911D00F2949D00B2901D0ED
:1010A00000203EE0002A04D15D49FFF733FF012014
:1010B00037E05C49FFF72EFF012032E0FFF71CFF0D
:1010C00005212000FFF703FFBB09590140252940F6
:1010D000DB01194349B2C9B22000FFF7FFFEF9094D
:1010E0007A11022313401943FA10042313401943C1
:1010F0007A100823134019437A0010231340194330
:10110000FA002023134019437B011D402943FF01AE
:101110003943C9B22000FFF7E1FE2000FFF7F3FEDC
:10112000012003B03CBC90469946A246AB46F0BDB8
:101130005E79F600F6B29D79ED00EDB20435EDB2C0
:10114000FFF7DAFE0F212000FFF7C1FEF10973114E
:101150000222934613401943F31002329246134081
:10116000194373100432914613401943730010263B
:10117000334019432000FFF7B1FEE9096B115A46CD
:1011800013401943EB105246134019436B104A4663
:10119000134019436B001E403143ED0020231D40D6
:1011A00029432000FFF79AFEE0212000FFF796FE7A
:1011B0002BE03278D3095011022101400B43D010AB
:1011C000042101400B435010082101400B43500003
:1011D000102101400B43D000202101400B4350015E
:1011E000402101400B43D20113436A46073213707A
:1011F00001212000FFF779FE0136013DADB2002D3F
:10120000D7D1013FFFB2002F04D043461E681D799D
:10121000ED00F4E72000FFF776FE012081E7C046ED
:101220002C4500002445000010B50400092904D015
:101230000A2907D0FFF724FF03E00649FFF7BAFEAB
:10124000012010BDFFF7BBFE03492000FFF762FE3F
:101250000120F6E73C450000BC44000010B544699D
:101260000023A04710BD002070470000002303604A
:10127000074A8260C26002614261232283540332C2
:1012800083548361FF33023A83540432835470479A
:1012900067120000F8B504000F0016001D00FFF7EC
:1012A000E5FFA760E6602561069B63612000FFF70C
:1012B000C4FEF8BD70470000F8B5234A234B9A429C
:1012C00009D0224B204A03E011681960043304322C
:1012D0001F498B42F8D31F4B02E000221A600433EF
:1012E0001D4A9342F9D31D4AFF211D4B8B43936046
:1012F000FD3990235B001B4AD1501B4AD37803254C
:10130000AB4302242343D370D3780C27BB43082676
:101310003343D370154B987B3022904320221043E7
:101320009873997BB943314399739A7BAA432243BB
:101330009A730F4A516880230B43536002F04AF8B6
:1013400001F032FFFEE7C0460C470000000000201D
:101350006401002064010020100B002000ED00E07B
:1013600000000000007000410050004100480041B2
:1013700000400041F0B5C64600B5C024E405802316
:101380005B026360244B254A9A62254A9A62502187
:101390005A5C042082435A545A5C0126B243012508
:1013A0002A43D2B25A5418395A5C0B3084468243CD
:1013B00002273A43D2B25A548022D2026261A2601A
:1013C0008022D20590469A62164999625221585C51
:1013D000B0432843C0B258543920195C6246914347
:1013E0003943C9B21954802109036161A1604246A1
:1013F0009A620D4A9A6253215A5CB2432A43D2B28E
:101400005A541A5C44390A4020210A43D2B21A5471
:1014100004BC9046F0BDC0460044004100000240BC
:10142000010002C0040000C0080000C0044A136AA2
:1014300008210B431362034A034B5A807047C0468E
:101440000004004015400000000C004010B5FFF7FC
:10145000EDFF0349034800F03FFAFFF78BFF10BD93
:10146000000C0042400A002030B50F4B5622995C18
:101470000125A94301242143C9B299543B20195C99
:10148000473A914302221143C9B2195457215A5C79
:10149000AA432243D2B25A541A5C48390A40202146
:1014A0000A43D2B21A5430BD00440041044A136AC0
:1014B00020210B431362034A034B5A807047C046F6
:1014C0000004004017400000000C004010B5FFF77A
:1014D000EDFF094C00222100084800F001FBFFF756
:1014E000C3FF0423A37580225201054B1A602368B1
:1014F00002221343236010BD00140042580A00204A
:1015000000E100E030B50F4BCA22995C0125A943E8
:1015100001242143C9B29954B520195CBB3A9143C7
:1015200003221143C9B21954CB215A5CAA43224366
:10153000D2B25A541A5CBC390A4030210A43D2B2A2
:101540001A5430BD00440041044A136A40210B4341
:101550001362034A034B5A807047C04600040040A0
:1015600018400000000C004010B5FFF7EDFF00220E
:101570000349044800F0B4FAFFF7C4FF10BDC046A9
:1015800000180042640A002010B5024800F082F9F9
:1015900010BDC04610E000E0F0B5C64600B5C0245E
:1015A000E40580225204A2601C4B8027FF059F6245
:1015B0001B49996262615820195C0422904691434C
:1015C0001954195C0126B14301252943C9B21954A4
:1015D0001C38195C0B329143062294466246114333
:1015E000C9B2195480218904A1609F620D4F9F6286
:1015F000616159215C5C424694435C545A5CB2433D
:101600002A43D2B25A541A5C4A390A4060210A432A
:10161000D2B21A5404BC9046F0BDC046004400410A
:10162000000100C0000200C0064BDA6920210A4315
:10163000DA615A6920310A435A61034A034B5A80DE
:101640007047C0460004004006400000000C004007
:1016500010B5FFF7E9FF00F07BFBFFF79DFF10BD22
:10166000F8B5CE46474680B500F0BAFBC022D20599
:101670008020000250602B4B2B4999622B499962C4
:1016800050604F24195D04252943C9B21955906152
:10169000195D012081431955802189029161916072
:1016A0008024E4059C62224999625125595D814359
:1016B000595598268021490191513735A9465151F4
:1016C000A8211C4F5F50C0273F06BC465F50CC2767
:1016D000B846DF5D874345465F558027BF01975178
:1016E0004D465751144F5F5065465D50CD255F5DA7
:1016F00087435F5594514D4654515C500F4A5A50A0
:1017000036315A5C82435A54FFF7A0FEFFF7DEFEE3
:10171000FFF72AFFFFF738FFFFF79AFF0CBC904650
:101720009946F8BD0044004100800240000002C01C
:10173000020000C00010004000200040004000C037
:1017400070B582B005000E00074C01A9200000F022
:101750004FF9200000F0E8F832002900019800F06D
:10176000A1F802B070BDC046400A002001235840D5
:10177000C0B2002805D180229202C023DB055A6145
:10178000704780229202C023DB059A61F8E70020AF
:101790007047000010B51439CCB20C2C1DD8A10034
:1017A0000F4C61588F4691B21800FFF7C9FF012016
:1017B00010BD0020FFF7DAFF0120F9E74A21FFF70B
:1017C0004DFD0120F4E70120FFF7D0FF0120EFE7F6
:1017D0000020FFF7CBFF0120EAE70020E8E7C04642
:1017E00054450000014B18787047C046840800201B
:1017F0000022054B1A708021C9059823C022D2050A
:10180000D15002487047C0468408002000000020E4
:10181000144B1B7E5B0716D58021C9059423C0227B
:10182000D205D1500F4B04221A7619680E4A0A408D
:101830001A601A8DD2B20D2A0DD00C490B680C48D3
:10184000C25401330B60074B1B7E9B0702D502225B
:10185000044B1A7670470121064B19700021034B87
:101860001960EAE700140042FFFFCFFF8008002064
:101870000000002084080020EFF31083036072B69C
:10188000BFF35F8F7047BFF35F8F036883F31088E8
:101890007047000010B5024B186000F0E9FD10BD64
:1018A0008808002070B504000D00160000280ED036
:1018B00000290AD001203422064900F07BFA23686F
:1018C000320029002000984770BD0020F3E7002077
:1018D000F1E7C0468845000070B504000D000028FF
:1018E00017D0002913D0012040220B4900F062FAE2
:1018F0006560201D290000F09FFB002806DB074BD8
:10190000A382074B2361074BE360002070BD0020DA
:10191000EAE70020E8E7C0469C4500000080FFFFA2
:10192000BD1900008919000010B50400431E98413C
:10193000C0B25722034900F03DFA201D00F076FCAA
:1019400010BDC0469C45000030B587B004000D00B6
:10195000002815D0002911D00120B322094900F038
:1019600029FA2B6803936B680493AB680193059382
:10197000201D03A900F070FC07B030BD0020ECE78B
:101980000020EAE79C45000070B584B004000E001A
:101990001500431E9841C0B2A322074900F00AFA7D
:1019A00020000C38002302930196039501A9FFF74C
:1019B000CBFF04B070BDC0469C45000070B584B03C
:1019C00004000E001500431E9841C0B2872207494B
:1019D00000F0F0F920000C380296002301930395E3
:1019E00001A9FFF7B1FF04B070BDC0469C450000DF
:1019F00070B504000D0000280CD0002908D001208B
:101A0000BD22054900F0D6F90C342C60002070BDD1
:101A10000020F5E70020F3E79C450000F8B505003D
:101A20000E001700002823D0002923D0002A23D13C
:101A30000020F122114900F0BDF92C0008342000EB
:101A400000F0E8FA0028F8D00025715D200000F0D1
:101A5000D9FA200000F0DEFA0028FAD00135BD42A4
:101A6000F3D3200000F0DBFA0028FAD02800F8BDFC
:101A70000020DEE70020DCE70120DAE7B8450000BF
:101A8000F8B5CE46474680B5051E884691461FD01C
:101A900000291FD0002A1FD10020862252000F49A2
:101AA00000F088F900262C000834200000F0BDFA70
:101AB0000028F8D043469F19200000F0A7FA38709C
:101AC00001364E45EFD330000CBC90469946F8BD28
:101AD0000020E2E70020E0E70120DEE7B845000053
:101AE00070B504000D00002814D0002910D001208A
:101AF0003422094900F05EF920000830290000F086
:101B00006FFA002803D1054B6360054B236070BD5D
:101B10000020EDE70020EBE7B8450000811A000047
:101B20001D1A000010B50100002001E0013040B294
:101B300003280FDC4201094B9B185A788A420BD0CC
:101B40004301064C1B5D002BF0D10F330B40934239
:101B5000ECD101E00120404210BDC0468C080020BD
:101B60000020704770B504000D00FFF7DBFF420155
:101B7000064B9B189B78032B01D0002070BD034BB4
:101B800098188369290020009847F7E78C080020FF
:101B9000F0B587B005000F000192FFF7C3FF040006
:101BA0004601484A9619002F51D1130042010020E6
:101BB000F070D35C002B0ED06201424B9B180122C7
:101BC0009A7064013F4B1C19E369E178019A28007F
:101BD000984707B0F0BDB3780C243457032B08D0D6
:101BE00032000C3270780021F36998470223B370F9
:101BF000EFE7707832000C320121F3699847002832
:101C000010D00523B370033BF370002C08DB73780E
:101C1000802040421843C0B2012101F0E9F8D8E722
:101C20007078F9E70423B37071780022039204926C
:101C3000002C09DB843B0B43DAB203A802720123B8
:101C4000437201F0B5F9C4E70F220A40F5E7012F0E
:101C50000AD0022F1DD0032F2CD04201194B9B1804
:101C600006229A70DA70ACE7164B420199180220EE
:101C7000C870D35C002B05D06201124B9B18052263
:101C80009A709EE702228A700021280001F0B0F8C5
:101C900097E70C4B420199180420C870D35C002BC5
:101CA00005D06201074B9B1801229A7089E7022335
:101CB0008B708EE74201034B9B1800229A7005320D
:101CC000DA707EE78C080020F8B50500FFF72AFFE0
:101CD0000600430108331D4CE41804342100280099
:101CE00001F02CF9C0B208280BD00121280001F026
:101CF0007FF8802040422843C0B2012101F078F8EB
:101D0000F8BD0021280001F073F880277F422F439F
:101D1000FFB20021380001F06BF872010B4B9B18E9
:101D200001229A705B692100280098470028E7D1BA
:101D30007601064B9E190523B3700121280001F09E
:101D400057F80121380001F053F8D9E78C0800203A
:101D500010B500F0FDFF002820DB80220021104894
:101D600001F065FB00220AE051010D4B5B18FF21D9
:101D700059700C4959619961D9610132D2B2032A73
:101D8000F2D90949002001F0F3F90849012001F0D6
:101D9000EFF90749022001F0EBF9002010BDC04621
:101DA0008C080020611B0000C91C0000651B00009E
:101DB000911B0000002800D100BE70470300064AB6
:101DC0001268002A04D0044A1068C31813607047D0
:101DD0000249014A1160F6E70C090020102B00208F
:101DE00010B5094A536806210B43536000F03CF8D4
:101DF00000F0BAFA022000F009F800F0F3FAFD2032
:101E000000F004F810BDC04600400041C30709D5EA
:101E1000114B802252009A60104A5A600E4B5B7838
:101E2000DB09FBD1830709D50B4B0222FF329A60F5
:101E30000B4A5A60084B5B78DB09FBD1030709D5D5
:101E4000054B0422FF329A60064A5A60024B5B78C7
:101E5000DB09FBD17047C046000C004000070100C1
:101E60000105010003040100064B1A7AD2B21A726E
:101E70005A7AD2B25A729A7AD2B29A72DA7AD2B2C2
:101E8000DA72704700040040024B9C466044800AAE
:101E9000C0B2704700F8FFBDC369DB0708D4036810
:101EA000022213430360C3699B07FCD100207047E3
:101EB00004204042FBE7000010B5FFF7E5FF0100FA
:101EC0000020012809D883001B189A00064BD35C18
:101ED000994208D00130C0B2F3E7044A0449002017
:101EE000FFF768FF002010BDF04500003A02000037
:101EF000D445000070B50400FFF7DEFFE369DB079F
:101F00001DD483001B189A00344B9B185A681C235D
:101F10001A40E3699B07FCD123689B0709D5236816
:101F200002218B432360E3699B07FCD1E3699B0794
:101F3000FCD4012313432360E3699B07FCD1E369CD
:101F4000DB07FCD483001B189A00244B9B185B68AA
:101F50002360E3699B07FCD183001B189A001F4B89
:101F60009B189B686360E3695B07FCD183001B18C7
:101F70009A001A4B9B185B689A040BD4C022D201BA
:101F8000134207D183001B189A00144B9B189B899E
:101F9000A38115E083001B189A00104989188A89CB
:101FA000A389D204D20C5B0B5B031343A3818B7B0D
:101FB00007221A40A3895203DB04DB0C1343A381DD
:101FC000064A83001D18A9000D005118C97BA17392
:101FD0005219127C3023E254002070BDF0450000FD
:101FE00070B505000C00431E9841C0B2B4220449EC
:101FF000FFF7E0FE2C602000FFF77CFF70BDC046BD
:10200000D4450000036889B2198570470368188DAC
:10201000C0B270470368187E0123184070470368F8
:102020001B7E5B0801201840704703681B7E9B08DD
:10203000012018407047000070B506000C00080031
:10204000FFF722FF0023002B00D184E00025002EA3
:1020500000D18CE0002C00D187E001206A4A6B4956
:10206000FFF7A8FE002D00D1CAE0E369DB0721D409
:102070002A786B781B021343AA7812041343EA7878
:1020800012061A431C231A40E3699B07FCD12368FC
:102090009B0709D5236802218B432360E3699B07D3
:1020A000FCD1E3699B07FCD4012313432360E3695C
:1020B0009B07FCD1E369DB07FCD434602B786A789A
:1020C00012021A43AB781B041A43EB781B06134326
:1020D0001C221340082B4CD0002C00D18CE0002D8A
:1020E00000D187E001204A4A4849FFF763FE2B7878
:1020F0006A7812021A43AB781B041A43EB781B066A
:102100001343444A13402360E3699B07FCD12B79B6
:102110006A7912021A43AB791B041A43EB791B0646
:1021200013433D4A13408022920213436360E369E4
:102130005B07FCD12B7B23736A7B3023E2542B7922
:102140005B075BD101233371AA7BEB7B1B0213433B
:10215000F380002070BD012802D00133DBB272E7AA
:102160001D01EA182D4DAD1871E7002076E700201B
:1021700074E7002C3CD0002D38D00120284A234998
:10218000FFF718FE2B786A7812021A43AB781B040B
:102190001A43EB781B0613431E4A13402360E3697E
:1021A0009B07FCD12B796A7912021A43AB791B0485
:1021B0001A43EB791B0613431A4A13401A4A134376
:1021C0006360E3695B07FCD12B7A6A7A12021A43D7
:1021D000AB7A1B041A43EB7A1B06134363626A7BD8
:1021E0003023E254E369002BFCD1A8E70020C5E7C7
:1021F0000020C3E7002076E7002074E70223A2E76F
:102200000D204042A6E7C04625090000D445000045
:10221000EF080000FCFEFFFFBF1DFDFF1846000099
:1022200003090000BFDDFDFF4002020010B5041EDF
:102230000ED00368002B09D0012098221201054915
:10224000FFF7B8FD2068FFF727FE10BD0020F4E778
:102250000020F2E7D4450000F0B5CE46474680B5F1
:1022600089B081460D0004680B6803934B680493A2
:102270000023059306930679002814D0002C10D073
:102280000120374A3749FFF795FDE3695B0764D1C1
:10229000E3699B07FCD123689B0720D414204042AC
:1022A00056E00020EDE70020EBE700222DE0487823
:1022B000000247460743B8460231039101320592B6
:1022C0004246A2625BB2002B35DB002000283ADBDD
:1022D0000598AB68984202D3069A934233D9237E7D
:1022E000DBB25A07E1D5A16A049A002A08D0501C33
:1022F00004901170012E03D9901C0490090A5170AA
:10230000069A0192013206920122002ADAD1069938
:10231000059A9142D6D34946C888D907D2D50399A0
:10232000002906D0481C039008788046012EBED8AC
:10233000C4E78046C2E701235B426383813323768F
:1023400013204042C2E7237E9B07FCD00323237661
:1023500009B00CBC90469946F0BD04204042F7E716
:10236000850A0000D445000010B51C494E248C821B
:10237000086A000C0A6A920F92070004184B184072
:10238000024302231A430A628B691B0C1B04FE22C0
:10239000D203134023438B610B7F1F2213400B7723
:1023A0000E4BDB689B07FBD50C4A938A80210B43BD
:1023B0009BB29382094BDB685B07FBD5074A9369A5
:1023C00080210B439361054BDB681B07FBD5034A58
:1023D000136A80210B43136210BDC0460008004001
:1023E0000000FF0F0222194B9A84184BDB68DB06B2
:1023F000FBD5174A154BDA62164B1B689B0E3F2B19
:102400001BD09B02802292001343104A93620A233E
:102410009384938C5B0713D50C4BDA68D02313405D
:10242000D02BF9D1094A938C80210B439BB2938422
:10243000094B5B78DB09FBD17047FC23DB01E4E748
:10244000024BDB68DB06FBD5ECE7C046000800402A
:102450000100010424608000000C0040024B034A8C
:102460005A6005221A60704710E000E0FFFFFF008D
:1024700010B5FFF7F3FF10BD00207047124B1A682C
:10248000530B1F210B40900C0140D00D072202403E
:102490001F2B12D01F2912D0072A12D09B010B43E9
:1024A00012031343094A1385D37803210B43D370D6
:1024B000D3780C210B43D37070471A3BEAE70239FB
:1024C000EAE7023AEAE7C046246080000050004193
:1024D00010B5837C0F221340C17C083A0A40012AC0
:1024E0000DD01A000832520119498C46624410215D
:1024F000D1715B01174A94466344197010BD4A06B6
:102500000CD5C27C40218A43C2741A0008325201A1
:102510000F4CA4466244802414715171C27C08217E
:102520008A43C2745A010C49891800248C728C7633
:1025300008335B0106498C4663446F21D971054B12
:102540009C4662441170054B9B68807C9847D5E798
:102550000050004108510041D80900201009002016
:1025600010B5827C0F23134020228A40D2B25B0137
:1025700005498C4663441A70044B1B698268807C51
:102580000121984710BDC0460851004110090020A4
:1025900010B5837CFF2B02D0C27C520600D410BD44
:1025A000C27C4024A243C274024A146982681800A3
:1025B000A047F4E710090020F0B583B0847C0F2316
:1025C0002340184D2E8801AD2E80FF2C1ED0C47CD8
:1025D00064061BD500291BD01C0008346401124D71
:1025E000AC4664448025257101AD6E5C1C00083446
:1025F00064010D4FBC466444E671695C5B010B4CA1
:10260000A446634419701100FFF7C2FF03B0F0BD88
:102610001C0008346401044DAC46644440256571D7
:10262000E2E7C0462C46000000500041085100413E
:10263000F0B583B0837C0F2213403C4A948801AAF2
:1026400014805A013A4CA418002933D01A000832D9
:102650005201384D525D120907251540C27C0726EC
:1026600016400A01A218947AE4B2022D2AD0A407D7
:1026700044D5947A0225AC43947201AC655C1A008F
:10268000083252012B4FBC466244D571625C5B013B
:10269000294CA44663441A70012E45D1C37C5B06C5
:1026A00042D5C37CDB0999423ED000221900FFF7D6
:1026B00083FF39E01A00083252011E4D555D072292
:1026C0001540CBE7E507D2D5947A0125AC43947247
:1026D00001AC655C1A0008325201164EB4466244E1
:1026E000D571625C5B01144CA44663441A704B1EA6
:1026F0009941C9B20422FFF75FFF15E05A00521852
:1027000012010B4882180020907201A8445C1A0044
:1027100008325201074DAC466244D471425C5B0101
:1027200005498C4663441A7003B0F0BD2C46000086
:10273000D8090020005000410851004170B5002424
:1027400017E0104DA60033199800103028180430F7
:102750000321FFF71DFF32199300EB182633FF22E8
:102760001A703619B300ED18273500232B70013489
:10277000E4B2082CE5D960220021034800F057FE9E
:1027800070BDC04610090020D8090020F0B5C6462B
:1027900000B505000E00837C0F241C406201564BDF
:1027A0009B18002958D059698904890C2B8A534AEF
:1027B000934253D0013B1BB20B40EA7C07271740E2
:1027C000002E07D02200083252014D488446624450
:1027D0000220D071AA6894466144A9606A68914257
:1027E0004ED292B28BB2D21A92B2EB7C9B0637D504
:1027F0002B8A98469A4200D890462B689C466144A2
:102800004246E86800F00AFEE96862013A4B9B180C
:1028100019616301384AD218516943469B049B0CE5
:10282000890B89030B4353615169364B0B4053614C
:10283000002E07D1012F5DD04A22630132498C4618
:1028400063441A70083464012D4B9C466444802311
:10285000637104BC9046F0BD0021A7E71BB2ABE753
:1028600080239B019A4207D890462B685918620131
:10287000214B9B181961CCE780239B019846F4E714
:10288000EA7CD2060FD5EB7C10229343EB746201F5
:10289000194B9B185A69920B910359615969194A4E
:1028A0000A405A61C4E7012F0DD06401174A9446CB
:1028B00064444A2222702A8A93420BD000212800C5
:1028C000FFF766FEC5E76401104A944664444B2254
:1028D0002270F0E7EB7C40229343EB740C4BDB68F7
:1028E000A87CA96898470028B3D1EB7C4022134309
:1028F000EB74E3E74E22A0E7D8090020FF030000B5
:1029000000500041FF3F00F00951004108510041D3
:1029100010090020F8B5DE4657464E464546E0B55C
:1029200004000F00837C0F251D40002959D06A0147
:10293000714B9B185B681B019B0C9A46002F53D070
:102940006A016D4B9B185B689B049B0C9846268A1A
:102950006A4B9E4201D0013EB6B2434633409B468D
:10296000E37C07221A409146002F07D02B00083342
:102970005B01634A944663440122DA71E37C9B065F
:1029800011D56268002A0ED092B22389D21A92B26F
:102990002368A1688C4663441800E168934500D21F
:1029A0005A4600F03BFD6368002B20D1E27CD20642
:1029B0001DD5E37C1022934320221343E3744E4938
:1029C0006A01E3685350238A8A1851689B041B09E3
:1029D0004C4801400B43536053689B0B9903516073
:1029E00047E000239A46A9E700239846AFE7002F67
:1029F0001DD0228A93451AD2E37C10229343E374BC
:102A0000A3684344A3604B46012B66D06B013E4A4A
:102A10009446634425221A70002D03D16D01364B74
:102A2000E268EA5000212000FFF7B2FD33E0A2681F
:102A30005244A2609342E6D99BB291B25B1A9BB218
:102A4000E17C89062DD5218A8B4200D81900E068E7
:102A50006B01294A98506B012748C01842688B04C3
:102A60001B0928490A401343436043689B0B9A03A0
:102A70004260002F08D14B46012B35D025226B0137
:102A800022498C4663441A7008356D011C4B9C46E4
:102A9000654440232B713CBC90469946A246AB4608
:102AA000F8BD218A8B420BD9802189018B420FD836
:102AB000B343190023689A186B010F481A50CAE7EC
:102AC0008B4208D2E17C20200143E1741900F1E738
:102AD00080218901EEE71900ECE76B010A4A944670
:102AE00063442D221A7097E76A01034B9B1800225A
:102AF0009A762D32C3E7C046D8090020FF030000B4
:102B000000500041FF3F00F00851004109510041D1
:102B100070B5894B1D8CADB2002D01D00024BFE0F3
:102B2000998B1B8B0B405A070DD49A0515D41A06A6
:102B300037D470221A423ED11A0757D4DB0700D58A
:102B400068E0002306E004227B4B9A837B4B1B68E2
:102B500098470123002BE1D070BD774B784A9A83C8
:102B60009A82923AFF3A1A830023012B12D8580115
:102B7000744A121812891207120F032A02D0013365
:102B8000DBB2F2E76F4B1B1819894904490D00228B
:102B90001A8100E00021694B5B68032098470123FC
:102BA000D8E78022644B9A83644B5B680021052040
:102BB00098470123CEE7604B9A839A82604A1A8332
:102BC000614B9B8C9B060CD45F4BDA68D02313407F
:102BD000D02BF9D1594B5B68002102209847012383
:102BE000B8E7594BDB68DB06FBD5F3E7524B002116
:102BF000802252009954F83A9A8368329A82504A55
:102C00001A83FFF79BFD4D4B5B680021012098471D
:102C100001239FE7484B4A4A9A839A82923AFF3AA5
:102C20001A83464B5B68002104209847012391E7F3
:102C3000DA0607D45A0608D49B062FD50021FFF7E1
:102C40008FFC2BE0FFF744FC28E00121FFF788FC14
:102C500024E05A060FD41A0711D49A0713D4C17C62
:102C600007220A40012A19D15A0710D4DB0615D5CC
:102C7000FFF72EFC12E00121FFF772FC0EE00121AC
:102C8000FFF7D6FC0AE00121FFF780FD06E00021F6
:102C9000FFF7CEFC02E00021FFF762FC0134E4B252
:102CA000082C00D958E7254BA20011198800010013
:102CB0001030181804305B1826331B78FF2BEDD02A
:102CC000827C0F23134001229A402A42E6D01A0048
:102CD0000832520118498C466244D2795B011B4983
:102CE0008C4663441B781340D8D0C27C47211140E6
:102CF00001299DD052B2002AABDB9A06CBD45A07E9
:102D00000DD4DA070FD4C17C07220A40012AC5D1AD
:102D10001A070CD4DB06C1D5FFF7DAFBBEE70021AA
:102D2000FFF786FCBAE70121FFF7F4FDB6E70121C2
:102D3000FFF77EFCB2E7C0460050004110090020BA
:102D400001020000D809002000080040095100419C
:102D500000B583B0002201AB5A70214B9B78DB0792
:102D60001BD41F4B9B789B07FBD11D4B1B789B07EC
:102D70000CD51B4A137802218B431370184B9B7898
:102D80009B07FBD1164B9B789B07FBD40122144B6E
:102D90001A70134B9B789B07FBD1114B9B78DB0779
:102DA000FBD4104B104A1A605A609A60DA601A61BC
:102DB000FFF7C4FCFFF762FB0422094B1A70084BB3
:102DC0009B789B07FBD1064A084B536201AB5B78AB
:102DD00001210B43DBB21381002003B000BDC046CC
:102DE000005000411009002079240000D80900207B
:102DF000F0B50F23034040B2C40F002B05D00028CC
:102E000001DB1A0002E09A1C00E01A001500900095
:102E1000801882001032454882180432022B00D9F3
:102E200080E0012917D0002939D0AA005219910059
:102E30003E4B5B1826331A780F23134008335B018F
:102E40003B4A9446634498791023A3401840431E9C
:102E50009841C0B2F0BDAA0051198B00C3182633A7
:102E60001B780F210B401026A640F6B2190008313E
:102E700049012F4FBC4661444E712021A140CCB284
:102E800059012C4B9C4661440C7052199300C31895
:102E90002033DA7908210A43DA710020DAE7937CDB
:102EA0000F310B4019000831490121488446614423
:102EB00088791021A140084224D0C9B218000830F6
:102EC0004001604401712021A140CEB25D011A4F42
:102ED000BC4665442E70C07908420AD019000831FA
:102EE0004901134884466144CE710120A040C0B21C
:102EF0000871D07C07210140012905D0D37C08212D
:102F00008B43D3740020A5E708335B0108498C4646
:102F10006344997930231942F4D1030008218B438B
:102F2000D374EFE71220404294E7C0461009002016
:102F300000500041095100410851004170B50E0098
:102F40000F2404406201184B9B1819685D68AD049A
:102F5000AD0C022C1FD8002E20D0230008335B01BB
:102F6000124A9B5C112B1CD1230008335B01944651
:102F70006344DB79DB0601D4002070BD08223000F9
:102F800000F04CFA08346401084B9C46644410235A
:102F9000E3712800F1E712204042EEE712204042A0
:102FA000EBE713204042E8E7D80900200050004139
:102FB000F0B5DE4657464E464546E0B585B08046FC
:102FC000057A0F232B406DB2EA0F9146002B05D0F6
:102FD000002D01DB180002E0981C00E0180006003C
:102FE0005F4982001718BC0010340C190434B80073
:102FF00009188A8C5B498A4242D0571EBFB24146AB
:1030000049680F40022B00D9A1E043461B6856488F
:1030100083420CD9C81801905448844601986045F1
:1030200005D89B0703D1002D2CDB91422DD2B30094
:103030009B199A004A4B9B181B6A002B00D189E010
:1030400001230193002D0ADB002F08D0B3009B1948
:103050009A00434B9B181B6A002B00D17DE0B20005
:10306000921991003E4B5B182033DB791B070FD57B
:10307000022005B03CBC90469946A246AB46F0BD46
:103080001700BCE700230193DCE700230193D9E795
:1030900003A8FEF7F1FBB20092199100304B5B18C8
:1030A0002033DB795B0630D4B3009B199A002C4B9C
:1030B0009B46934420235B449A46DB79402213438A
:1030C0005246D37103A8FEF7DEFB5B464246126808
:1030D0005A61424652689A6100235A46D3614B4670
:1030E000DB015246D2797F211140019A52010B43F4
:1030F00020218B431A435346DA7143465B7A002BF7
:1031000008D0002F1BD0002205E003A8FEF7BBFB70
:103110000120AEE70022B3009E19B100104B5B18EE
:1031200020331101DA79102082430A43DA71002D2D
:1031300007DB00212000FFF7EDFB002099E70122CB
:10314000E9E700212000FFF721FB002091E7122092
:1031500040428EE7132040428BE71220404288E72E
:1031600010090020FF030000FFFFFF1FFF7F00206A
:10317000002908D0002808D0012809D0022806D14B
:10318000054B196103E00549F4E7034B996070476B
:10319000014BD960FBE7C0461009002079240000EC
:1031A00010B5FFF7B5FC10BDF0B587B0FCF7B2FF66
:1031B00002AB374A13CA13C3190013680B60354CAE
:1031C000354B364A36492000FDF74EF92000FDF711
:1031D0003BFF00212000FDF73EFF07212000FDF707
:1031E00041FF2000FDF75BF82E492000FDF756FC5B
:1031F00003E02D4B1B88632B46D8264C2000FDF79F
:103200004EF805230193233300930422C8212000A4
:10321000FCF786FF02AB102200212000FDF700FC26
:10322000FEF7E6FA0300202200212000FDF7F8FB5C
:103230002000FDF740F81C4B1D881C4B1E881C4CC1
:103240002788FEF7CFFA0190009733002A0019492A
:1032500002A800F0F5F8238801339BB223803B2BB2
:1032600006D90022124B1A80104A138801331380AA
:103270000E4B1B883B2BBCD900220C4B1A800A4AF0
:10328000138801331380B4E70022074B1A80B4E798
:1032900048460000740A00208F17000095170000B0
:1032A00098440000703C0000080B0020700A0020C9
:1032B0000A0B00203446000070470000002243083B
:1032C0008B4274D303098B425FD3030A8B4244D3EE
:1032D000030B8B4228D3030C8B420DD3FF22090230
:1032E00012BA030C8B4202D31212090265D0030BEF
:1032F0008B4219D300E0090AC30B8B4201D3CB03E5
:10330000C01A5241830B8B4201D38B03C01A524126
:10331000430B8B4201D34B03C01A5241030B8B4228
:1033200001D30B03C01A5241C30A8B4201D3CB0213
:10333000C01A5241830A8B4201D38B02C01A5241F8
:10334000430A8B4201D34B02C01A5241030A8B42FB
:1033500001D30B02C01A5241CDD2C3098B4201D313
:10336000CB01C01A524183098B4201D38B01C01A91
:10337000524143098B4201D34B01C01A5241030908
:103380008B4201D30B01C01A5241C3088B4201D3B7
:10339000CB00C01A524183088B4201D38B00C01A64
:1033A000524143088B4201D34B00C01A5241411A8B
:1033B00000D20146524110467047FFE701B5002098
:1033C00000F006F802BDC0460029F7D076E7704746
:1033D0007047C04670B500260C4D0D4C641BA41000
:1033E000A64209D1002601F081F90A4D0A4C641B5E
:1033F000A410A64205D170BDB300EB589847013622
:10340000EEE7B300EB5898470136F2E7F8460000C4
:10341000F8460000F8460000FC460000002310B506
:103420009A4200D110BDCC5CC4540133F8E70300CC
:103430008218934200D1704719700133F9E70000F8
:103440000EB410B59DB002A9029008610B48822409
:1034500088604861012040421FABC881084804CB06
:10346000A400006801938C8100F0CCF80023029A3C
:1034700013701DB010BC08BC03B01847FFFFFF7FDE
:1034800000010020032370B5CD1C9D4308350600C4
:103490000C2D1ED20C25A9421DD8300000F06DFB6A
:1034A000254A14682100002919D1244C2368002BD7
:1034B00003D1300000F032FB20602900300000F022
:1034C0002DFB431C2CD10C233000336000F056FB45
:1034D00003E0002DDFDA0C233360002070BD0B68A1
:1034E0005B1B1AD40B2B03D90B60CC18256003E0AF
:1034F0008C420ED163681360300000F03FFB200067
:1035000007220B30231D9043C31AE7D05A42E250E2
:10351000E4E74B6863600C00EEE70C004968C2E723
:103520000323C41C9C43A042E0D0211A300000F0C9
:10353000F5FA431CDAD1C6E7380A00203C0A00201D
:10354000F0B58E6885B007000C00039201939E428F
:1035500039D890238A89DB001A4234D003250969BF
:1035600023685B1A0293636902985D43EB0F5D1950
:10357000019B6D1001331B18AB4200D91D00530590
:1035800032D529003800FFF77DFF061E09D10C2334
:103590003B6040230120A28940421343A38105B030
:1035A000F0BD029A2169FFF739FFA389144A1A4036
:1035B00080231343A381029B2661F6182660656170
:1035C000019EED1AA560019BB34200D21E0032009D
:1035D0000399206800F0BFFAA36800209B1BA3603A
:1035E00023689E192660DAE72A00380000F012FBF3
:1035F000061EE0D12169380000F0C2FAC7E7C046D4
:103600007FFBFFFFF0B59FB0029005938B890F0001
:1036100016001B0611D50B69002B0ED14021FFF7B8
:1036200031FF38603861002805D10C23029A013837
:1036300013601FB0F0BD40237B61002306AD6B61BA
:1036400020336B761033AB7634002378002B47D1D0
:10365000A31B04930DD0A31B320039000298FFF77F
:103660006FFF431C00D1B5E06A69049B9446634434
:103670006B612378002B00D1ACE001220023524281
:103680006A6002A95432521801342B60EB60AB60BF
:103690001370AB65584E05222178300000F050FAC7
:1036A000621C002820D12968CB0604D5532302AE22
:1036B00020309B1918700B0704D553232B2002AE22
:1036C0009B19187023782A2B16D000200A21099BF9
:1036D0002278303A092A55D9002815D0099313E0E9
:1036E000252BB5D00134B0E70123801B8340296826
:1036F00014000B432B60CDE7059B181D1B6805903C
:10370000002B39DB0993140023782E2B0BD163781F
:10371000621C2A2B3ED1059B02341A1D1B680592A0
:10372000002B34DB0793354E21780322300000F064
:1037300007FA002806D04023801B83402A68013402
:1037400013432B60217806222D48661C297600F051
:10375000F7F9002846D02B4B002B2FD12968059B69
:103760000722C90528D59B189343083305936B6935
:10377000039A9B186B6167E75B42EB6002230B4384
:103780002B60C0E74B4301349B180120A0E70123C5
:103790005B42C7E7002314000A201A006B602178FF
:1037A0003039092903D9002BBDD00792BBE742432A
:1037B000013452180123F2E70733D5E705AB009334
:1037C0003A00114B2900029800E000BF0390039BD0
:1037D0000133CCD1BB890B985B0600D429E70120CB
:1037E000404226E705AB00933A00074B29000298B8
:1037F00000F07AF8EAE7C046B8460000BE4600008E
:10380000C24600000000000041350000F7B5150079
:1038100001938A680B6900900C00934200DA130050
:1038200022002B6043321278002A01D001332B6032
:1038300023689B0602D52B6802332B60062723687A
:103840001F4027D0230043331B785A1E9341226820
:10385000920630D42200019943320098089EB04766
:10386000431C25D0062320682A68E1680340002510
:10387000042B03D18D1AEB43DB171D40A36822698B
:10388000934201DD9B1AED180027BD4220D1002094
:1038900010E00137E3682A689B1A9F42D2DA2200BF
:1038A0000123193201990098089EB047431CF0D1BA
:1038B00001204042FEBD3020E11843310870210054
:1038C0005A1C45310978A218433202331170C1E7FE
:1038D000220001231A3201990098089EB047431C28
:1038E000E6D00137D1E70000F0B58BB006920A00B0
:1038F00043320793059004920A7E0C00109B6E2AB7
:1039000000D18FE017D8632A2CD008D8002A00D124
:1039100099E0582A54D026004236327029E0642AB1
:1039200001D0692AF7D121681A68080623D5111D2C
:103930001960156825E0732A00D188E008D86F2A3D
:1039400029D0702AE7D1202209680A43226003E0C7
:10395000752A20D0782ADED12200782145321170D4
:103960006C4A30E00E001A684236111D1960136867
:103970003370012379E04906D9D5111D1960002360
:10398000D55E002D03DA2D23049A6D421370624B2D
:103990000A2703932FE020681968050603D5081D40
:1039A00018600D6805E04006F9D50D68081D18601F
:1039B000ADB2594B082703936F2A18D00A2716E097
:1039C00045310A70544A03921A682168101D186024
:1039D0001568080622D5CB0702D52023194321609C
:1039E0001027002D03D1202322689A432260230050
:1039F000002243331A706368A360002B5CDB04224F
:103A0000216891432160002D58D1049E002B64D081
:103A10002600039B42361B7833705EE04806DAD5F9
:103A2000ADB2D8E709681A68080605D5111D1960F6
:103A3000136862691A6006E04906F7D5111D19601E
:103A40001368A28A1A800023049E236154E01A6836
:103A5000111D1960166800216268300000F070F8CE
:103A6000002801D0801B6060636823610023049AF2
:103A7000137041E02369320006990598079DA84715
:103A8000431C43D0236800259B070FD4099BE068A3
:103A900098423DDA18003BE02200012319320699D2
:103AA0000598079EB047431C30D00135E368099A5A
:103AB0009B1A9D42F0DBE9E7002DA9D0049E280067
:103AC0003900FFF781FC039B013E5B5C28003370EB
:103AD0003900FFF7F3FB051EF1D1082F09D1236848
:103AE000DB0706D563682269934202DC3023013E7E
:103AF0003370049B9B1B2361079B09AA0093210041
:103B0000069B0598FFF782FE431CB3D1012040427B
:103B10000BB0F0BDDA460000C9460000002370B5C6
:103B2000064C050008002360FEF748F9431C03D14A
:103B30002368002B00D02B6070BDC0460C0B00200A
:103B4000C9B28218904201D10020704703788B429D
:103B5000FBD00130F6E710B5884202D98B189842A5
:103B600008D300239A4207D0CC5CC4540133F9E750
:103B70008B5C8354013AFBD210BD70477047000044
:103B800070B50500002910D00C1F2368002B00DA47
:103B9000E4182800FFF7F1FF1D4A1368002B05D138
:103BA000636014602800FFF7E9FF70BDA34209D9E4
:103BB000216860188342F3D118685B68411821605E
:103BC000EEE713005A68002A01D0A242F9D9196819
:103BD0005818A0420BD12068091858181960824261
:103BE000E0D110685268411819605A60DAE7A042C3
:103BF00002D90C232B60D5E721686018824203D1DB
:103C0000106852684118216062605C60CAE7C04673
:103C1000380A0020F8B507000D001600002905D16C
:103C20001100FFF72FFC04002000F8BD002A03D18B
:103C3000FFF7A6FF3400F7E700F012F82C008642E9
:103C4000F2D931003800FFF71DFC041EECD029002A
:103C50003200FFF7E3FB29003800FFF791FFE3E7AD
:103C60000B1F1B68181F002B01DA0B58C018704778
:103C70005F00030305050405061614FDFC0EFC0E8B
:103C8000FE026D05BA080B200600602C01210FC44E
:103C9000253423391C2C2265C92122012209A5645F
:103CA0004621E14500231B8B616429114BC412D9C5
:103CB00061729849C412D961729849C412B144081A
:103CC000242149A65B1987846B924829520A5582A0
:103CD000B643E81033464AA14AA8129195E39020D2
:103CE000002529EEE17B35938A26415948280B456A
:103CF0006511A9287D2487C6C6225134240B8A6405
:103D0000C1982CA6148C4EE330002624D0258C4B71
:103D1000078AE420991C2493832672581D3AABD954
:103D200084135270561D52A7B4DA21741B01270761
:103D3000A2642E7118281105A23327128D442399ED
:103D4000DE66B2995000291005A2332194CD643368
:103D50007D1A89466A002A10E7E045354A9A4444AC
:103D60002349649434022B154A215C2987C82172A7
:103D700088F07030CA2172881C22042C0BE4602B5E
:103D800023394446D9002D0765E034F1102E0A840A
:103D9000202C23394424002F0FC6213CA918540C91
:103DA0002A0615838A003013C9255C379C8C6492DF
:103DB000997F9BC84493E10C00310BC7295C271CF9
:103DC00015F79F0E3215C9255C47134D66B6896CF1
:103DD0003C1D4FA762D5C3A1003317C9255C47130B
:103DE0004D66B6896C2C9C83E41399DB44342B011B
:103DF0003416C9255C1F174F1923B3D028368A4DB6
:103E0000829383743C2D3518C9255C73889CE2909D
:103E100038240EB1C5E6E389CC6D229A950036169A
:103E2000C9255C575A91D924E3C988B2E66D229B13
:103E30008C8433003711C9255CF1509E8AE562B944
:103E40007875BC11003815C9255C379449A4D4E2B3
:103E5000456434858E556A4D46033917C9255C374C
:103E6000144D669299B7C98434194F6436C96854A1
:103E7000033A0D242534233944C4924344023B0FB2
:103E8000846533233944C4924364940D003C114A41
:103E9000215C0F111339D32174081D4287083D0B93
:103EA000C9A45CF140473C1C083E124A215C2187B2
:103EB000D02174081D4226729643003F12C9215436
:103EC0005712DD6C13D958772431952C044027CF35
:103ED00021847B1ECBE4A090AC2411299164229212
:103EE0004C449189246A2289D244249A10E5A0D8AE
:103EF000587C08024120CE1D741F07CB8173201D02
:103F00001499834272486C1E1B47A7076178181FDB
:103F1000C927D402421ECC21747198CD48C3D170F8
:103F2000341CCD6687E0D274329D4C27D3C97072A1
:103F30009001431DCC2174590AB18C25E33A840EBB
:103F4000A183E6A039680E89CC23E3184D5A0344B7
:103F50001FCE218471980E69E3D178349FCC27F36A
:103F6000C97C329FCC27E3D17834241D8600451FBD
:103F7000CB216C71A00C2753C92C1499852223E105
:103F800071249C0567A1C83832950C0F07461ECBDB
:103F9000216C71A00C2753C92C1499852223E1713F
:103FA000249C0567C139640E995B014721CD217CB2
:103FB000598A914863D158328744E690C81C3687A5
:103FC0004D0FE1D174349D91A8A50800481ECE2163
:103FD0008451AC8C47E3D178341E8D4787D2783436
:103FE0001E8D47E3D178349E140B490AC5254C51E8
:103FF00019ED7F294A13CA1D645B9EEF936C429AA8
:104000009026C2916848044B1ECE2184512B4D85C9
:1040100043E94C3C924FE4103BE43E218FA833E24D
:104020009036A5D40C4C10CA2164519EEFAF916913
:104030006428991D0C4D2DD1219C612E9169555AF2
:10404000641899856691596816998546A1596C122C
:104050009AC526A1598C360BCE66C1D968189CD456
:1040600062054E21CE218441AD5067D42035584C95
:10407000A10543A4608C120C16A3C428313C1B8BF1
:10408000CA21004F1DCE21846926D1C6A3F1640E3A
:10409000B143EC103BC40EB1439647E319896C045D
:1040A000501ECC21747110CE4843CA9032A40C2902
:1040B00033D2213807CD4173D01C3487D401512825
:1040C0004E22836926D1C6A3F1640EB143EC103BA6
:1040D000C40EB1D026A39168269951CA76A81C3A7D
:1040E0008983EAB01100521FCD218471A00D49D3FC
:1040F000D174341D0D6787E86C381BCE68C3D97046
:10410000369C1827005316CA21644709AD0C25D3E5
:1041100008D97A355BCBD5D3245402541CCB216CFF
:104120007130ADCD6433D92C3887CC2173C81C32A3
:1041300087CC2173C8BC06551ECE218451AC8C4758
:10414000F3D83C368FCD63F3D83C368FCD63F3D8AC
:104150003C38941B015622CF1D7461AC9067F3204C
:10416000353C0D4FE3B3386416074DE2B0491C38B7
:1041700087CEC171781C005730D41D9C61315568C1
:10418000C4D9701AA4D1C2335A78460B532294383A
:1041900064129AC42193D0240EA1D161C3396C3822
:1041A0000786E3D0701800581FCF218C63AA11A78F
:1041B00034F9480EB1C3E8503AAC0EB3434464E15D
:1041C00074481B538A06591FCD217C61A35065D3C7
:1041D000204D3A0B53E2903A680E9BC3E6B0396C1F
:1041E0000E9B436E005A19CC216CF1102E4FC294D5
:1041F000289D0E9943E8AC1172645C3E1C025B0A78
:1042000004A63361D2FF13015C12C8214C21968BA6
:10421000E562B9582E968BE562015D0A04A233412E
:10422000D2FF93015E0E08A14D27961269222D42FE
:10423000A2005F0749604BF140600885A43E215B06
:104240001461122A215C739A4D8463DA646D329B87
:104250008C9806621FCC1D644107CD4173D01C347D
:10426000074D88B4D174329D4C27D3C974421B4981
:104270006A00630F292154571A19CB5B233319099C
:1042800000641DCC216C4F07CD4173D01C34A48C2D
:104290006694E9643A994EA693E96846A4106512BB
:1042A0002A215C471C4D86C6C3413E8E0C65250005
:1042B000660EC8213C4793EC3AB44DF7B106671E31
:1042C000EB215B0F924346C6D14C2813CA4643A349
:1042D0001C74081E22D289583294DD00681ECC213D
:1042E0006C4107CD4173D01C34074D6A24D2703421
:1042F0001C0D47C3D170349C940A690CC52134331A
:104300005A0792F64B016A0F471633B91D8DB83F15
:104310005A2C2212006B1DCC216C4107CD4173D069
:104320001C34078D4A33E1283C115F27C4116D46C8
:10433000A9186C0AC5213441DAFFA5006D18332194
:10434000A441A9D84825D27069B8345C1A2E0D97BB
:10435000862BA5066E152C216C41A99148C3D170FE
:10436000341C0D47C3D170522A6F0F2B2164579C08
:104370004DA6BE4E66C31A00701CAC1D633122D21E
:1043800046D3C974329D4C27D3096D3421CE417375
:10439000D01C5207711CAC21634712CD28D3C974BD
:1043A000329D4C27D3D18C489983E6A039680E29D9
:1043B000720F28214C4111512423C974C71A00736C
:1043C000122921544509C924C388F16A2D4A22259E
:1043D000007411A72144178E0A67A6E19E22A3103C
:1043E000050075152C216C51220D47C3D170341C6A
:1043F0000D47C3115B850076142A1D4C519A0C435E
:10440000C3D828388A92E972881000771B301D7C47
:1044100051294D66C3D06C181B91822352944426B7
:10442000D1857288500878122B216461619351A460
:10443000F579554293512806791BAB2163519B4C6A
:1044400043D3D82C388B4EC293F81C32074565D124
:10445000497C0E7A0E29215471A0D588DC8AC403C8
:10446000017B0E05A2332712EDA4281BED26147C38
:1044700007C2315CF1037D0F05A23321948DB6098B
:1044800045A23DA9017E0B6A2465B572888C460061
:1044900000000004FFFF0000750D0000F10D00009A
:1044A000170E0000A40F0000900F00009A0F0000EC
:1044B000A40F0000A40F0000A40F00001815551948
:1044C000FE0118151E16101918153316401600197E
:1044D00018150716FF168C1600160416001600167F
:1044E000011918158D160416FC16001680191815DA
:1044F0000516001614191815AA19FE0F181503161B
:104500000016201918150B1600163C191815091657
:10451000001918151016001918150116001918158C
:104520008619FF0018158619FF0000001815B61926
:10453000FE01181501160019FF0000000001F078B7
:1045400001013C7800093D0003043C78200700008D
:1045500000013200B2170000DA170000DA1700007D
:10456000A6170000C6170000D0170000DA170000D9
:10457000DA170000DA170000DA170000DA17000077
:10458000DA170000BC1700002E2E2F68616C2F7305
:1045900072632F68616C5F696F2E63002E2E2F6827
:1045A000616C2F7372632F68616C5F7370695F6DEC
:1045B0005F73796E632E63002E2E2F68616C2F73EC
:1045C00072632F68616C5F75736172745F73796E6B
:1045D000632E63002E2E2F68706C2F736572636FCD
:1045E0006D2F68706C5F736572636F6D2E63000072
:1045F000030000000400104000020300AAEA0000CB
:10460000000000000400000004003140000003002E
:10461000AAEA0000000000000C00010000000200F7
:10462000000000000100FF0101000000254A000019
:1046300004080000253032643A253032643A2530CF
:1046400032643B20256400002020202020202020F0
:1046500020202020200A0D000000000000000000A3
:10466000000000000000000000000000000000004A
:10467000000000000000000000000000000000003A
:10468000000000000000000000000000000000002A
:10469000000000000000000000000000000000001A
:1046A000000000000000000000000000000000000A
:1046B0000000000000000000232D302B2000686C5B
:1046C0004C00656667454647003031323334353635
:1046D000373839414243444546003031323334356E
:1046E000363738396162636465660000F8B5C046E4
:1046F000F8BC08BC9E467047DD000000F8B5C04617
:0C470000F8BC08BC9E467047B5000000E5
:10470C0074657374000000000000000000000000DD
:10471C00000000000000000000000000000000008D
:10472C00000000000000000000000000000000007D
:10473C00000000000000000000000000000000006D
:10474C00000000000000000000000000000000005D
:10475C00000000000000000000000000000000004D
:10476C00000000000000000000000000000000003D
:10477C00000000000000000000000000000000002D
:10478C00000000000000000000000000000000001D
:10479C00000000000000000000000000000000000D
:1047AC0000000000000000000000000000000000FD
:1047BC0000000000000000000000000000000000ED
:1047CC0000000000000000000000000000000000DD
:1047DC0000000000000000000000000000000000CD
:1047EC0000000000000000000000000000000000BD
:1047FC0000000000000000000000000000000000AD
:10480C0004010020000000007846000098460000DB
:10481C0058460000000000000000000000000000EE
:10482C00000000000000000000000000000000007C
:10483C00000000000000000000000000000000006C
:10484C00000000000000000000000000000000005C
:10485C00000000000000000000000000000000004C
:04486C000000000048
:00000001FF
